{
  "_format": "hh-sol-artifact-1",
  "contractName": "BatchTransactionWithBiconomy",
  "sourceName": "contracts/BatchTransaction.sol",
  "abi": [
    {
      "inputs": [
        {
          "internalType": "address",
          "name": "erc1",
          "type": "address"
        },
        {
          "internalType": "address",
          "name": "erc2",
          "type": "address"
        },
        {
          "internalType": "address",
          "name": "erc3",
          "type": "address"
        },
        {
          "internalType": "address",
          "name": "_trustedForwarder",
          "type": "address"
        }
      ],
      "stateMutability": "nonpayable",
      "type": "constructor"
    },
    {
      "anonymous": false,
      "inputs": [
        {
          "indexed": true,
          "internalType": "address",
          "name": "previousOwner",
          "type": "address"
        }
      ],
      "name": "OwnershipRenounced",
      "type": "event"
    },
    {
      "anonymous": false,
      "inputs": [
        {
          "indexed": true,
          "internalType": "address",
          "name": "previousOwner",
          "type": "address"
        },
        {
          "indexed": true,
          "internalType": "address",
          "name": "newOwner",
          "type": "address"
        }
      ],
      "name": "OwnershipTransferred",
      "type": "event"
    },
    {
      "inputs": [
        {
          "internalType": "uint256",
          "name": "amount",
          "type": "uint256"
        }
      ],
      "name": "BatchTransfer",
      "outputs": [],
      "stateMutability": "nonpayable",
      "type": "function"
    },
    {
      "inputs": [],
      "name": "Token1",
      "outputs": [
        {
          "internalType": "contract IERC20",
          "name": "",
          "type": "address"
        }
      ],
      "stateMutability": "view",
      "type": "function"
    },
    {
      "inputs": [],
      "name": "Token2",
      "outputs": [
        {
          "internalType": "contract IERC20",
          "name": "",
          "type": "address"
        }
      ],
      "stateMutability": "view",
      "type": "function"
    },
    {
      "inputs": [],
      "name": "Token3",
      "outputs": [
        {
          "internalType": "contract IERC20",
          "name": "",
          "type": "address"
        }
      ],
      "stateMutability": "view",
      "type": "function"
    },
    {
      "inputs": [],
      "name": "isOwner",
      "outputs": [
        {
          "internalType": "bool",
          "name": "",
          "type": "bool"
        }
      ],
      "stateMutability": "view",
      "type": "function"
    },
    {
      "inputs": [
        {
          "internalType": "address",
          "name": "forwarder",
          "type": "address"
        }
      ],
      "name": "isTrustedForwarder",
      "outputs": [
        {
          "internalType": "bool",
          "name": "",
          "type": "bool"
        }
      ],
      "stateMutability": "view",
      "type": "function"
    },
    {
      "inputs": [],
      "name": "owner",
      "outputs": [
        {
          "internalType": "address",
          "name": "",
          "type": "address"
        }
      ],
      "stateMutability": "view",
      "type": "function"
    },
    {
      "inputs": [],
      "name": "renounceOwnership",
      "outputs": [],
      "stateMutability": "nonpayable",
      "type": "function"
    },
    {
      "inputs": [
        {
          "internalType": "address",
          "name": "_trustedForwarder",
          "type": "address"
        }
      ],
      "name": "setTrustForwarder",
      "outputs": [],
      "stateMutability": "nonpayable",
      "type": "function"
    },
    {
      "inputs": [
        {
          "internalType": "address",
          "name": "newOwner",
          "type": "address"
        }
      ],
      "name": "transferOwnership",
      "outputs": [],
      "stateMutability": "nonpayable",
      "type": "function"
    },
    {
      "inputs": [],
      "name": "trustedForwarder",
      "outputs": [
        {
          "internalType": "address",
          "name": "",
          "type": "address"
        }
      ],
      "stateMutability": "view",
      "type": "function"
    },
    {
      "inputs": [],
      "name": "versionRecipient",
      "outputs": [
        {
          "internalType": "string",
          "name": "",
          "type": "string"
        }
      ],
      "stateMutability": "pure",
      "type": "function"
    },
    {
      "inputs": [
        {
          "internalType": "contract IERC20",
          "name": "token",
          "type": "address"
        }
      ],
      "name": "withdraw",
      "outputs": [],
      "stateMutability": "nonpayable",
      "type": "function"
    }
  ],
  "bytecode": "0x60806040523480156200001157600080fd5b50604051620014b3380380620014b38339818101604052810190620000379190620001b0565b336000806101000a81548173ffffffffffffffffffffffffffffffffffffffff021916908373ffffffffffffffffffffffffffffffffffffffff16021790555083600260006101000a81548173ffffffffffffffffffffffffffffffffffffffff021916908373ffffffffffffffffffffffffffffffffffffffff16021790555082600360006101000a81548173ffffffffffffffffffffffffffffffffffffffff021916908373ffffffffffffffffffffffffffffffffffffffff16021790555081600460006101000a81548173ffffffffffffffffffffffffffffffffffffffff021916908373ffffffffffffffffffffffffffffffffffffffff1602179055506200014b816200015560201b60201c565b505050506200026a565b80600160006101000a81548173ffffffffffffffffffffffffffffffffffffffff021916908373ffffffffffffffffffffffffffffffffffffffff16021790555050565b600081519050620001aa8162000250565b92915050565b60008060008060808587031215620001c757600080fd5b6000620001d78782880162000199565b9450506020620001ea8782880162000199565b9350506040620001fd8782880162000199565b9250506060620002108782880162000199565b91505092959194509250565b6000620002298262000230565b9050919050565b600073ffffffffffffffffffffffffffffffffffffffff82169050919050565b6200025b816200021c565b81146200026757600080fd5b50565b611239806200027a6000396000f3fe608060405234801561001057600080fd5b50600436106100cf5760003560e01c80638da5cb5b1161008c578063a4baecc911610066578063a4baecc9146101dc578063bbd8f83a146101fa578063ddf0b3da14610218578063f2fde38b14610234576100cf565b80638da5cb5b146101825780638f32d59b146101a057806396a8797e146101be576100cf565b806339d0ae02146100d4578063486ff0cd146100f057806351cff8d91461010e578063572b6c051461012a578063715018a61461015a5780637da0a87714610164575b600080fd5b6100ee60048036038101906100e99190610cd5565b610250565b005b6100f8610398565b6040516101059190610f21565b60405180910390f35b61012860048036038101906101239190610cac565b6103d5565b005b610144600480360381019061013f9190610c5a565b61049c565b6040516101519190610eeb565b60405180910390f35b6101626104f6565b005b61016c6105ad565b6040516101799190610e70565b60405180910390f35b61018a6105d7565b6040516101979190610e70565b60405180910390f35b6101a8610600565b6040516101b59190610eeb565b60405180910390f35b6101c6610657565b6040516101d39190610f06565b60405180910390f35b6101e461067d565b6040516101f19190610f06565b60405180910390f35b6102026106a3565b60405161020f9190610f06565b60405180910390f35b610232600480360381019061022d9190610c5a565b6106c9565b005b61024e60048036038101906102499190610c5a565b6106e6565b005b60008111610293576040517f08c379a000000000000000000000000000000000000000000000000000000000815260040161028a90610f63565b60405180910390fd5b6102e961029e610703565b3083600260009054906101000a900473ffffffffffffffffffffffffffffffffffffffff1673ffffffffffffffffffffffffffffffffffffffff1661073a909392919063ffffffff16565b61033f6102f4610703565b3083600360009054906101000a900473ffffffffffffffffffffffffffffffffffffffff1673ffffffffffffffffffffffffffffffffffffffff1661073a909392919063ffffffff16565b61039561034a610703565b3083600460009054906101000a900473ffffffffffffffffffffffffffffffffffffffff1673ffffffffffffffffffffffffffffffffffffffff1661073a909392919063ffffffff16565b50565b60606040518060400160405280600181526020017f3100000000000000000000000000000000000000000000000000000000000000815250905090565b6103dd610600565b6103e657600080fd5b610499338273ffffffffffffffffffffffffffffffffffffffff166370a08231306040518263ffffffff1660e01b81526004016104239190610e70565b60206040518083038186803b15801561043b57600080fd5b505afa15801561044f573d6000803e3d6000fd5b505050506040513d601f19601f820116820180604052508101906104739190610cfe565b8373ffffffffffffffffffffffffffffffffffffffff166107c39092919063ffffffff16565b50565b6000600160009054906101000a900473ffffffffffffffffffffffffffffffffffffffff1673ffffffffffffffffffffffffffffffffffffffff168273ffffffffffffffffffffffffffffffffffffffff16149050919050565b6104fe610600565b61050757600080fd5b60008054906101000a900473ffffffffffffffffffffffffffffffffffffffff1673ffffffffffffffffffffffffffffffffffffffff167ff8df31144d9c2f0f6b59d69b8b98abd5459d07f2742c4df920b25aae33c6482060405160405180910390a260008060006101000a81548173ffffffffffffffffffffffffffffffffffffffff021916908373ffffffffffffffffffffffffffffffffffffffff160217905550565b6000600160009054906101000a900473ffffffffffffffffffffffffffffffffffffffff16905090565b60008060009054906101000a900473ffffffffffffffffffffffffffffffffffffffff16905090565b60008060009054906101000a900473ffffffffffffffffffffffffffffffffffffffff1673ffffffffffffffffffffffffffffffffffffffff163373ffffffffffffffffffffffffffffffffffffffff1614905090565b600260009054906101000a900473ffffffffffffffffffffffffffffffffffffffff1681565b600360009054906101000a900473ffffffffffffffffffffffffffffffffffffffff1681565b600460009054906101000a900473ffffffffffffffffffffffffffffffffffffffff1681565b6106d1610600565b6106da57600080fd5b6106e381610849565b50565b6106ee610600565b6106f757600080fd5b6107008161088d565b50565b6000601460003690501015801561071f575061071e3361049c565b5b1561073357601436033560601c9050610737565b3390505b90565b6107bd846323b872dd60e01b85858560405160240161075b93929190610e8b565b604051602081830303815290604052907bffffffffffffffffffffffffffffffffffffffffffffffffffffffff19166020820180517bffffffffffffffffffffffffffffffffffffffffffffffffffffffff8381831617835250505050610984565b50505050565b6108448363a9059cbb60e01b84846040516024016107e2929190610ec2565b604051602081830303815290604052907bffffffffffffffffffffffffffffffffffffffffffffffffffffffff19166020820180517bffffffffffffffffffffffffffffffffffffffffffffffffffffffff8381831617835250505050610984565b505050565b80600160006101000a81548173ffffffffffffffffffffffffffffffffffffffff021916908373ffffffffffffffffffffffffffffffffffffffff16021790555050565b600073ffffffffffffffffffffffffffffffffffffffff168173ffffffffffffffffffffffffffffffffffffffff1614156108c757600080fd5b8073ffffffffffffffffffffffffffffffffffffffff1660008054906101000a900473ffffffffffffffffffffffffffffffffffffffff1673ffffffffffffffffffffffffffffffffffffffff167f8be0079c531659141344cd1fd0a4f28419497f9722a3daafe3b4186f6b6457e060405160405180910390a3806000806101000a81548173ffffffffffffffffffffffffffffffffffffffff021916908373ffffffffffffffffffffffffffffffffffffffff16021790555050565b60006109e6826040518060400160405280602081526020017f5361666545524332303a206c6f772d6c6576656c2063616c6c206661696c65648152508573ffffffffffffffffffffffffffffffffffffffff16610a4b9092919063ffffffff16565b9050600081511115610a465780806020019051810190610a069190610c83565b610a45576040517f08c379a0000000000000000000000000000000000000000000000000000000008152600401610a3c90610fa3565b60405180910390fd5b5b505050565b6060610a5a8484600085610a63565b90509392505050565b606082471015610aa8576040517f08c379a0000000000000000000000000000000000000000000000000000000008152600401610a9f90610f43565b60405180910390fd5b610ab185610b77565b610af0576040517f08c379a0000000000000000000000000000000000000000000000000000000008152600401610ae790610f83565b60405180910390fd5b6000808673ffffffffffffffffffffffffffffffffffffffff168587604051610b199190610e59565b60006040518083038185875af1925050503d8060008114610b56576040519150601f19603f3d011682016040523d82523d6000602084013e610b5b565b606091505b5091509150610b6b828286610b8a565b92505050949350505050565b600080823b905060008111915050919050565b60608315610b9a57829050610bea565b600083511115610bad5782518084602001fd5b816040517f08c379a0000000000000000000000000000000000000000000000000000000008152600401610be19190610f21565b60405180910390fd5b9392505050565b600081359050610c00816111a7565b92915050565b600081519050610c15816111be565b92915050565b600081359050610c2a816111d5565b92915050565b600081359050610c3f816111ec565b92915050565b600081519050610c54816111ec565b92915050565b600060208284031215610c6c57600080fd5b6000610c7a84828501610bf1565b91505092915050565b600060208284031215610c9557600080fd5b6000610ca384828501610c06565b91505092915050565b600060208284031215610cbe57600080fd5b6000610ccc84828501610c1b565b91505092915050565b600060208284031215610ce757600080fd5b6000610cf584828501610c30565b91505092915050565b600060208284031215610d1057600080fd5b6000610d1e84828501610c45565b91505092915050565b610d3081610ff5565b82525050565b610d3f81611007565b82525050565b6000610d5082610fc3565b610d5a8185610fd9565b9350610d6a818560208601611073565b80840191505092915050565b610d7f8161104f565b82525050565b6000610d9082610fce565b610d9a8185610fe4565b9350610daa818560208601611073565b610db3816110a6565b840191505092915050565b6000610dcb602683610fe4565b9150610dd6826110b7565b604082019050919050565b6000610dee601883610fe4565b9150610df982611106565b602082019050919050565b6000610e11601d83610fe4565b9150610e1c8261112f565b602082019050919050565b6000610e34602a83610fe4565b9150610e3f82611158565b604082019050919050565b610e5381611045565b82525050565b6000610e658284610d45565b915081905092915050565b6000602082019050610e856000830184610d27565b92915050565b6000606082019050610ea06000830186610d27565b610ead6020830185610d27565b610eba6040830184610e4a565b949350505050565b6000604082019050610ed76000830185610d27565b610ee46020830184610e4a565b9392505050565b6000602082019050610f006000830184610d36565b92915050565b6000602082019050610f1b6000830184610d76565b92915050565b60006020820190508181036000830152610f3b8184610d85565b905092915050565b60006020820190508181036000830152610f5c81610dbe565b9050919050565b60006020820190508181036000830152610f7c81610de1565b9050919050565b60006020820190508181036000830152610f9c81610e04565b9050919050565b60006020820190508181036000830152610fbc81610e27565b9050919050565b600081519050919050565b600081519050919050565b600081905092915050565b600082825260208201905092915050565b600061100082611025565b9050919050565b60008115159050919050565b600061101e82610ff5565b9050919050565b600073ffffffffffffffffffffffffffffffffffffffff82169050919050565b6000819050919050565b600061105a82611061565b9050919050565b600061106c82611025565b9050919050565b60005b83811015611091578082015181840152602081019050611076565b838111156110a0576000848401525b50505050565b6000601f19601f8301169050919050565b7f416464726573733a20696e73756666696369656e742062616c616e636520666f60008201527f722063616c6c0000000000000000000000000000000000000000000000000000602082015250565b7f596f7520646f6e2774206861766520612062616c616e63650000000000000000600082015250565b7f416464726573733a2063616c6c20746f206e6f6e2d636f6e7472616374000000600082015250565b7f5361666545524332303a204552433230206f7065726174696f6e20646964206e60008201527f6f74207375636365656400000000000000000000000000000000000000000000602082015250565b6111b081610ff5565b81146111bb57600080fd5b50565b6111c781611007565b81146111d257600080fd5b50565b6111de81611013565b81146111e957600080fd5b50565b6111f581611045565b811461120057600080fd5b5056fea2646970667358221220e727fdd0747d4efc611fdbe41780f021ad1cf86988de0545d934533cc0a32fdb64736f6c63430008040033",
  "linkReferences": {},
  "deployedLinkReferences": {}
}